{
  "_format": "hh-sol-artifact-1",
  "contractName": "Token",
  "sourceName": "contracts/Token.sol",
  "abi": [
    {
      "inputs": [],
      "stateMutability": "nonpayable",
      "type": "constructor"
    },
    {
      "inputs": [
        {
          "internalType": "address",
          "name": "account",
          "type": "address"
        }
      ],
      "name": "getBalance",
      "outputs": [
        {
          "internalType": "uint256",
          "name": "",
          "type": "uint256"
        }
      ],
      "stateMutability": "view",
      "type": "function"
    },
    {
      "inputs": [],
      "name": "name",
      "outputs": [
        {
          "internalType": "string",
          "name": "",
          "type": "string"
        }
      ],
      "stateMutability": "view",
      "type": "function"
    },
    {
      "inputs": [],
      "name": "owner",
      "outputs": [
        {
          "internalType": "address",
          "name": "",
          "type": "address"
        }
      ],
      "stateMutability": "view",
      "type": "function"
    },
    {
      "inputs": [],
      "name": "symbol",
      "outputs": [
        {
          "internalType": "string",
          "name": "",
          "type": "string"
        }
      ],
      "stateMutability": "view",
      "type": "function"
    },
    {
      "inputs": [],
      "name": "totalSupply",
      "outputs": [
        {
          "internalType": "uint256",
          "name": "",
          "type": "uint256"
        }
      ],
      "stateMutability": "view",
      "type": "function"
    },
    {
      "inputs": [
        {
          "internalType": "address",
          "name": "to",
          "type": "address"
        },
        {
          "internalType": "uint256",
          "name": "amount",
          "type": "uint256"
        }
      ],
      "name": "transfer",
      "outputs": [],
      "stateMutability": "nonpayable",
      "type": "function"
    }
  ],
  "bytecode": "0x60806040526040518060400160405280600b81526020017f416172617620546f6b656e000000000000000000000000000000000000000000815250600090805190602001906200005192919062000141565b506040518060400160405280600381526020017f4848540000000000000000000000000000000000000000000000000000000000815250600190805190602001906200009f92919062000141565b50612710600255348015620000b357600080fd5b50600254600460003373ffffffffffffffffffffffffffffffffffffffff1673ffffffffffffffffffffffffffffffffffffffff1681526020019081526020016000208190555033600360006101000a81548173ffffffffffffffffffffffffffffffffffffffff021916908373ffffffffffffffffffffffffffffffffffffffff16021790555062000256565b8280546200014f9062000220565b90600052602060002090601f016020900481019282620001735760008555620001bf565b82601f106200018e57805160ff1916838001178555620001bf565b82800160010185558215620001bf579182015b82811115620001be578251825591602001919060010190620001a1565b5b509050620001ce9190620001d2565b5090565b5b80821115620001ed576000816000905550600101620001d3565b5090565b7f4e487b7100000000000000000000000000000000000000000000000000000000600052602260045260246000fd5b600060028204905060018216806200023957607f821691505b6020821081141562000250576200024f620001f1565b5b50919050565b610c5480620002666000396000f3fe608060405234801561001057600080fd5b50600436106100625760003560e01c806306fdde031461006757806318160ddd146100855780638da5cb5b146100a357806395d89b41146100c1578063a9059cbb146100df578063f8b2cb4f146100fb575b600080fd5b61006f61012b565b60405161007c91906107f2565b60405180910390f35b61008d6101b9565b60405161009a919061082d565b60405180910390f35b6100ab6101bf565b6040516100b89190610889565b60405180910390f35b6100c96101e5565b6040516100d691906107f2565b60405180910390f35b6100f960048036038101906100f49190610901565b610273565b005b61011560048036038101906101109190610941565b6104a8565b604051610122919061082d565b60405180910390f35b600080546101389061099d565b80601f01602080910402602001604051908101604052809291908181526020018280546101649061099d565b80156101b15780601f10610186576101008083540402835291602001916101b1565b820191906000526020600020905b81548152906001019060200180831161019457829003601f168201915b505050505081565b60025481565b600360009054906101000a900473ffffffffffffffffffffffffffffffffffffffff1681565b600180546101f29061099d565b80601f016020809104026020016040519081016040528092919081815260200182805461021e9061099d565b801561026b5780601f106102405761010080835404028352916020019161026b565b820191906000526020600020905b81548152906001019060200180831161024e57829003601f168201915b505050505081565b80600460003373ffffffffffffffffffffffffffffffffffffffff1673ffffffffffffffffffffffffffffffffffffffff1681526020019081526020016000205410156102f5576040517f08c379a00000000000000000000000000000000000000000000000000000000081526004016102ec90610a1b565b60405180910390fd5b610319604051806060016040528060278152602001610baf60279139338385610553565b80600460003373ffffffffffffffffffffffffffffffffffffffff1673ffffffffffffffffffffffffffffffffffffffff16815260200190815260200160002060008282546103689190610a6a565b925050819055506103ed6040518060400160405280602081526020017f2a2a2a2a2053656e6465722062616c616e636520697320257320746f6b656e73815250600460003373ffffffffffffffffffffffffffffffffffffffff1673ffffffffffffffffffffffffffffffffffffffff168152602001908152602001600020546105f5565b80600460008473ffffffffffffffffffffffffffffffffffffffff1673ffffffffffffffffffffffffffffffffffffffff168152602001908152602001600020600082825461043c9190610a9e565b925050819055506104a4604051806060016040528060228152602001610bfd60229139600460008573ffffffffffffffffffffffffffffffffffffffff1673ffffffffffffffffffffffffffffffffffffffff168152602001908152602001600020546105f5565b5050565b600061050c604051806060016040528060278152602001610bd66027913983600460008673ffffffffffffffffffffffffffffffffffffffff1673ffffffffffffffffffffffffffffffffffffffff16815260200190815260200160002054610691565b600460008373ffffffffffffffffffffffffffffffffffffffff1673ffffffffffffffffffffffffffffffffffffffff168152602001908152602001600020549050919050565b6105ef8484848460405160240161056d9493929190610af4565b6040516020818303038152906040527fa366ec80000000000000000000000000000000000000000000000000000000007bffffffffffffffffffffffffffffffffffffffffffffffffffffffff19166020820180517bffffffffffffffffffffffffffffffffffffffffffffffffffffffff8381831617835250505050610730565b50505050565b61068d828260405160240161060b929190610b40565b6040516020818303038152906040527f9710a9d0000000000000000000000000000000000000000000000000000000007bffffffffffffffffffffffffffffffffffffffffffffffffffffffff19166020820180517bffffffffffffffffffffffffffffffffffffffffffffffffffffffff8381831617835250505050610730565b5050565b61072b8383836040516024016106a993929190610b70565b6040516020818303038152906040527f07c81217000000000000000000000000000000000000000000000000000000007bffffffffffffffffffffffffffffffffffffffffffffffffffffffff19166020820180517bffffffffffffffffffffffffffffffffffffffffffffffffffffffff8381831617835250505050610730565b505050565b60008151905060006a636f6e736f6c652e6c6f679050602083016000808483855afa5050505050565b600081519050919050565b600082825260208201905092915050565b60005b83811015610793578082015181840152602081019050610778565b838111156107a2576000848401525b50505050565b6000601f19601f8301169050919050565b60006107c482610759565b6107ce8185610764565b93506107de818560208601610775565b6107e7816107a8565b840191505092915050565b6000602082019050818103600083015261080c81846107b9565b905092915050565b6000819050919050565b61082781610814565b82525050565b6000602082019050610842600083018461081e565b92915050565b600073ffffffffffffffffffffffffffffffffffffffff82169050919050565b600061087382610848565b9050919050565b61088381610868565b82525050565b600060208201905061089e600083018461087a565b92915050565b600080fd5b6108b281610868565b81146108bd57600080fd5b50565b6000813590506108cf816108a9565b92915050565b6108de81610814565b81146108e957600080fd5b50565b6000813590506108fb816108d5565b92915050565b60008060408385031215610918576109176108a4565b5b6000610926858286016108c0565b9250506020610937858286016108ec565b9150509250929050565b600060208284031215610957576109566108a4565b5b6000610965848285016108c0565b91505092915050565b7f4e487b7100000000000000000000000000000000000000000000000000000000600052602260045260246000fd5b600060028204905060018216806109b557607f821691505b602082108114156109c9576109c861096e565b5b50919050565b7f496e73756666696369656e7420746f6b656e7300000000000000000000000000600082015250565b6000610a05601383610764565b9150610a10826109cf565b602082019050919050565b60006020820190508181036000830152610a34816109f8565b9050919050565b7f4e487b7100000000000000000000000000000000000000000000000000000000600052601160045260246000fd5b6000610a7582610814565b9150610a8083610814565b925082821015610a9357610a92610a3b565b5b828203905092915050565b6000610aa982610814565b9150610ab483610814565b9250827fffffffffffffffffffffffffffffffffffffffffffffffffffffffffffffffff03821115610ae957610ae8610a3b565b5b828201905092915050565b60006080820190508181036000830152610b0e81876107b9565b9050610b1d602083018661087a565b610b2a604083018561081e565b610b37606083018461087a565b95945050505050565b60006040820190508181036000830152610b5a81856107b9565b9050610b69602083018461081e565b9392505050565b60006060820190508181036000830152610b8a81866107b9565b9050610b99602083018561087a565b610ba6604083018461081e565b94935050505056fe2a2a2a2a20257320204953205452414e53464552494e4720257320544f4b454e5320544f2025732a2a2a2a2043757272656e742062616c616e6365206f6620257320697320257320746f6b656e732a2a2a2a2052656365697665722062616c616e636520697320257320746f6b656e73a2646970667358221220cfd0d3bf780444abe6864ea2907032c3869f0e12e471f3ec0c7470c3ba21213364736f6c63430008090033",
  "linkReferences": {},
  "deployedLinkReferences": {}
}